:020000040800F2
:10000000100600200D020008AF240008332000086D
:10001000AD240008BD040008FD2B0008000000000E
:10002000000000000000000000000000B3240008F1
:100030007105000800000000B1240008B524000884
:1000400027020008270200082702000827020008EC
:1000500027020008270200082702000827020008DC
:1000600027020008270200082702000827020008CC
:1000700027020008C1040008270200082702000820
:100080002702000827020008790300082702000859
:10009000270200082702000827020008270200089C
:1000A000270200082702000827020008270200088C
:1000B000270200082702000827020008270200087C
:1000C000270200082702000827020008270200086C
:1000D000270200082702000827020008F12B000869
:1000E000270200082702000827020008270200084C
:1000F000270200082702000827020008270200083C
:10010000270200082702000827020008270200082B
:10011000E12600082702000827020008270200083D
:10012000270200082702000827020008270200080B
:1001300027020008270200082702000827020008FB
:1001400027020008270200082702000827020008EB
:1001500027020008270200082702000827020008DB
:1001600027020008270200082702000827020008CB
:1001700027020008270200082702000800000000EC
:1001800027020008270200082702000827020008AB
:10019000270200082702000827020008270200089B
:1001A000270200082702000827020008270200088B
:1001B000270200082702000827020008270200087B
:1001C000270200082702000800000000270200089C
:1001D000270200082702000827020008270200085B
:1001E000270200082702000827020008270200084B
:1001F0002702000827020008DFF80CD000F0AAF858
:10020000004800476130000810060020064880477B
:1002100006480047FEE7FEE7FEE7FEE7FEE7FEE7EB
:10022000FEE7FEE7FEE7FEE759250008F9010008B2
:100230002DE9F05F0546002092469B46884606461B
:10024000814640241BE0284641464746224600F0AE
:1002500070F853465A46C01A914110D311461846B9
:10026000224600F057F82D1A67EB01084F46224648
:100270000120002100F04EF817EB00094E41201E2E
:10028000A4F10104DFDC484631462A464346BDE876
:10029000F09F40EA01039B0703D009E008C9121F41
:1002A00008C0042AFAD203E011F8013B00F8013B30
:1002B000521EF9D27047D2B201E000F8012B491E5C
:1002C000FBD270470022F6E710B513460A460446F3
:1002D0001946FFF7F0FF204610BD421C10F8011B25
:1002E0000029FBD1801A704730B50B46014600202B
:1002F0002022012409E021FA02F59D4205D303FAE8
:1003000002F5491B04FA02F52844151EA2F1010268
:10031000F1DC30BD202A04DB203A00FA02F1002093
:1003200070479140C2F1200320FA03F31943904033
:100330007047202A04DB203A21FA02F0002170479E
:1003400021FA02F3D040C2F120029140084319463D
:1003500070470000064C074D06E0E06840F00103DE
:1003600094E8070098471034AC42F6D3FFF748FFF3
:100370004835000868350008014800F0B1B90000B0
:10038000280000204A496FF0706210B5D1F804339C
:1003900023F44033C1F80433D1F8043344682343D1
:1003A000C1F8043301684B6823F480734B60016823
:1003B00003694C6844EA03234B6001684B6823F0EF
:1003C00040734B60016884684B6823434B6001684D
:1003D0008B6823F400638B600168C4688B682343D7
:1003E0008B60816AD14201688A6822F070628A60FB
:1003F00001680DD0836A8A681A438A6001688A6836
:1004000022F040528A600168C36A8A681A4302E097
:100410008A6822F040528A6001688A6822F00202EB
:100420008A60016882698B6843EA42028A6090F8B8
:1004300020100029016811D01E4A4B6843F4006364
:100440004B6001684B6823F460434B600168446A69
:100450004B6802EB443213434B6003E04A6822F4DA
:1004600000624A600168144BCA6A22F47002CA62D0
:100470000168848BCA6A03EB04531A43CA62016899
:100480008A6822F400728A60016890F830208B68D4
:1004900043EA42228A6001688A6822F480628A60A4
:1004A000016840698A6842EA8020886010BD0000C7
:1004B0000020014000E0FFFF0000F0FFFEE7000029
:1004C000014800F021BA0000B001002001681823A3
:1004D000CAB2103AB2FBF3F2054B6FF30901032ADB
:1004E0009B5CC36500D9091D816508467047000003
:1004F0002835000810B583694FF0C074826A014640
:10050000002053B1B3F5005F15D072B1012A0CD0B1
:10051000022A0AD0032A09D104E01AB1012A06D01E
:10052000022A03D1C96AC90100D5012010BDC96AD8
:10053000A142FAD010BD002AF7D0012AF2D0022A37
:10054000F3D0032AF3D010BD30B50468256825F434
:1005500080252560046863608368402B036803D0AE
:1005600099600068C26030BD9A600068C16030BDAB
:100570007047704770470000F8B50025009590F867
:100580003C20012A18D0012280F83C200A68072369
:100590004E4C0668092A1AD90A3A02EB4207F26859
:1005A000BB409A43F2600E680268A64206D10B7AFD
:1005B000D66846EA036308E00220F8BD0A3E8B686D
:1005C000D76806EB4606B3403B43D3600EE002EB30
:1005D00042073269BB409A43326103680E788A68E9
:1005E0001F6906EB4606B2403A431A614A681F2368
:1005F000072A13D20668521E02EB8207726BBB40B9
:100600009A43726303680E790A88761E5F6B92B212
:1006100006EB8606B2403A435A6327E006680D2A85
:1006200012D2D21F02EB8207326BBB409A43326375
:1006300002680E790B88F61F176B9BB206EB8606D5
:10064000B3403B43136311E00D3A02EB8207F26AB9
:10065000BB409A43F26202680E790B880D3ED76A5E
:100660009BB206EB8606B3403B43D362184A03684D
:10067000934208D10B68122B05D1D2F8043343F40E
:100680008003C2F80433036893421AD10B68A34273
:1006900001D0112B15D1D2F8043343F40003C2F872
:1006A00004330968A1420CD10A490B4A0968B1FB1D
:1006B000F2F101EB8101490000E0491E009100299F
:1006C000FBD180F83C500020F8BD00001200001063
:1006D000002001401000002040420F00704770478A
:1006E00070B50446006801684268C1F34001C2F376
:1006F000401251B34AB3216CC90603D4216C41F4B2
:1007000000712164816811F0405F17D1A169A9B916
:10071000C16A11F4700F02D0816849050ED4416896
:1007200021F020014160206C20F480702064206C56
:10073000C00403D4206C40F0010020642046FFF781
:10074000CDFF21686FF012000860206801684268E0
:10075000C1F38001C2F3C01289B382B3216CC90610
:1007600003D4216C41F400512164816811F4401FCD
:100770001ED1816B11F4401F02D08168490517D446
:100780004168490514D4816811F0405F10D1A16916
:1007900071B9416821F080014160206C20F48050E3
:1007A0002064206CC00503D4206C40F0010020645C
:1007B0002046FFF7DFFE21686FF00C00086020681C
:1007C0000168436811F0010FC3F380110ED069B1C5
:1007D0000068C0070AD0206C40F4803020642046B6
:1007E00000F046F821686FF0010008602068016899
:1007F0004268C1F340110029C2F380620DD0002A83
:100800000BD0616C6FF0200541F00201616405605E
:100810002046FFF764FF2068056070BD70B50400D6
:100820004FF0000503D0206C002610B107E0012036
:1008300070BD204600F01EF8666484F83C60206CB1
:10084000C00610D4206C20F4885040F002002064D0
:100850002046FFF797FD6664206C20F0020040F010
:100860000100206400E0012584F83C60284670BD4A
:100870007047000010B586B0044614216846FFF7A3
:1008800021FD15492068884223D11448016841F4AC
:1008900080710160006800F4807005900F48143882
:1008A000016841F00401016000680321002200F0AA
:1008B0000400059001208DE807000948694600F012
:1008C000B5F900220121122000F004FB122000F0F3
:1008D000F3FA06B010BD0000002001404438024089
:1008E0000008024090F83510022903D080214165AC
:1008F00001207047052180F835100068016821F05B
:1009000001010160002070472DE9F84304464FF0D3
:100910000009644B0820CDF800904FF41652A56DE5
:1009200094F85C101B682E68B3FBF2F700FA01F133
:1009300031420FD021680A6852070BD50A6822F0AD
:1009400004020A6094F85C108840A860606D40F072
:100950000100606594F85C104FF0010808FA01F09E
:10096000304208D021684969090604D5A860606D45
:1009700040F00200606594F85C100420884030422A
:1009800008D021680968890704D5A860606D40F027
:100990000400606594F85C1010208840304218D044
:1009A00021680968090714D5A8602068016849030F
:1009B00004D50068000308D5A16C07E00168C905EB
:1009C00003D4016821F008010160216C09B12046BF
:1009D000884794F85C1020208840304231D021684C
:1009E0000968C9062DD5A86094F835000528206847
:1009F000016806D0490347D5006800031DD4616C27
:100A00001CE021F0160101602068416921F080019D
:100A10004161206C08B9A06C20B12068016821F008
:100A20000801016094F85C303F229A40AA6084F883
:100A3000349084F83580216D1FE0E16B09B12046C8
:100A40008847606D00282BD0606DC00714D005204A
:100A500084F835002068016821F0010101600098E8
:100A6000401C0090B84203D820680068C007F6D147
:100A700084F8349084F83580E16C002910D001B0FE
:100A80002046BDE8F04308470168C905D5D403688E
:100A900023F01003036084F8349084F83580CCE7A9
:100AA000BDE8F883100000202DE9F047044600F06F
:100AB000AFF9054664B14FF0000984F83490022183
:100AC00084F835102068016821F0010101600EE012
:100AD0000120BDE8F08700BF00F09AF9401B05280F
:100AE00005D920216165032084F83500F1E72068ED
:100AF0000068C007F0D1D4E90020D4E90251D4E95C
:100B0000043C284304F1180519430843116895E88B
:100B1000E00140EA0C001C4B2843194040EA060063
:100B200040EA0700B8F1040F40EA010003D1D4E91C
:100B30000B1319430843106020680126656A406959
:100B4000042D20F0070045EA00050CD1D4E90A0184
:100B5000054341B12046FFF7CDFC20B14020606540
:100B600084F83560B4E7206845612046FFF7AEFCA5
:100B700094F85C303F229A408260C4F8549084F824
:100B800035600020A5E700003F8010E02DE9F0412E
:100B9000044690F8340000250128A66D0ED094F884
:100BA00035C00127002084F83470BCF1010F07D054
:100BB000022584F834002846BDE8F0810220FBE7D6
:100BC000022784F8357060652046FFF7BDFC94F875
:100BD0005C103F208840B0602068016841F0160139
:100BE00001602068416941F080014161206C20B1C1
:100BF0002068016841F0080101602068016841F047
:100C000001010160D7E7000070B5044600F000F96B
:100C10000546601C02D004480078044400F0F8F84F
:100C2000401BA042FAD370BD040000202DE9F84F0C
:100C3000DFF89CE100224FF001084FF0030B4FF06A
:100C40000F0A00BF0B6808FA02F42340A34271D1D7
:100C50004D68022D01D0122D0FD1D5080E6957070E
:100C600000EB8505A9462D6AFF0E0AFA07FCBE4077
:100C700025EA0C052E43C9F820600F795500066857
:100C80000BFA05FC07F0030726EA0C06AF403743D2
:100C900007604E68012E05D0022E03D0112E01D020
:100CA000122E0ED18668CF6826EA0C06AF40374375
:100CB000876046680F79A643C7F30017974037430C
:100CC0004760C4688E6824EA0C04AE402643C660C0
:100CD0004C68E40075D53F4C256845F48045256097
:100CE000246822F00306950704F4804400943A4CEB
:100CF0002D0F2644D6F80848DFF8E0C00AFA05F7B9
:100D0000604524EA070401D100272EE0344FB842A1
:100D100001D1012729E0334FB84201D1022724E055
:100D2000314FB84201D103271FE0304FB84202D102
:100D300004271AE045E02E4FB84201D1052714E000
:100D40002C4FB84201D106270FE02B4FB84201D1FA
:100D500007270AE0294FB84201D1082705E0284FAC
:100D6000B84201D1092700E00A27AF402743754662
:100D7000C6F808784E68DEF80040F60324EA03045B
:100D800000D51C43124E2C60361D4D683468AD03EF
:100D900024EA030400D51C430D4F346008374D6826
:100DA0003C68ED0224EA030400D51C43084D3C6076
:100DB0000C354E682C68B60224EA030400D51C43A7
:100DC0002C60521C102AFFF43DAFBDE8F88F0000E4
:100DD000003C014044380240003001400000024025
:100DE0000004024000080240000C024000100240D3
:100DF0000014024000180240001C02400020024083
:100E0000002402400AB1816170470904FBE7000039
:100E10000148806870470000040000200248816893
:100E2000027811448160704704000020032010B54F
:100E300000F070F8002000F005F800F023F8002022
:100E400010BD000070B50D4D04464FF47A700C4A89
:100E500029781268B0FBF1F0B2FBF0F000F0C6FDAB
:100E600048B9102C07D200222146501E00F032F85B
:100E700000206C6070BD012070BD000004000020E7
:100E8000100000200B4882B0016841F080510160E1
:100E9000006800F0805000900648001D016841F491
:100EA00080410160006800F480400090052002B09D
:100EB00000F030B840380240002809DB410900F05A
:100EC0001F028900012001F1E0219040C1F80001DA
:100ED000704700000E4BF0B41B680D46C3F30223AD
:100EE000C3F10706042E00D90426191D072901D2D3
:100EF000002300E0DB1E012404FA06F19C40491E99
:100F00002940641E994014402143F0BC01F08CBE7E
:100F10000CED00E0064900F0070210B54FF6FF04A3
:100F20000868044B204040EA02201843086010BDC6
:100F30000CED00E00000FA051848F8B5016841F032
:100F4000805101600068164C00F0805000902068CD
:100F500040F480302060FFF75BFF4FF47A7605465F
:100F600005E000BFFFF754FF401BB0420FD8606898
:100F7000C003F7D5206840F400302060FFF748FF39
:100F8000054606E0FFF744FF401BB04201D90320AD
:100F9000F8BD60688003F5D50020F8BD40380240F8
:100FA000007000402DE9F84F04460078DFF82494E3
:100FB0004FF000063746C0070ED0D9F8001021F4D4
:100FC0000001C9F80010D9F80010626B1143C9F88C
:100FD0000010606B00B90126FE4D206884350003C7
:100FE0000ED5E16B286820F4401008432860E06BC0
:100FF000B0F5801F01D010B102E0012600E001270A
:1010000020684FF4800BC0020CD5216C286820F4B6
:10101000400008432860206C584501D1012601E0BA
:1010200000B901272068C10100D50126800666D5D8
:10103000E8483830016841F0805101600068DFF80D
:1010400098A300F080500090DAF8001041F480710D
:10105000CAF80010FFF7DCFE804605E0FFF7D8FE77
:10106000A0EB080064287DD8DAF80000C005F5D5AB
:10107000DFF8608308F16808D8F8000010F44070C9
:101080002AD0218E01F44071814225D0D8F8001079
:10109000D8F8002021F4407142F48032C8F80020D2
:1010A000D8F8002022F48032C8F80020C8F80010D8
:1010B000D8F80000C0070FD0FFF7AAFE824607E06D
:1010C000FFF7A6FEA0EB0A0141F288308142CAD8A0
:1010D000D8F800008007F3D5206BC0F30121032965
:1010E0007ED0D9F8001021F4F811C9F80010228E32
:1010F000D8F80010C2F30B021143C8F80010207892
:10110000C00607D5286820F0807028602868A16B89
:10111000084328602188AF488830490405D5626EAD
:10112000016821F44031114301602188090405D58B
:10113000A26E016821F44021114301602168C903B6
:1011400005D5E26E016821F4401111430160216868
:10115000890305D5226F016821F440011143016024
:10116000217800E034E1490605D5626C016821F080
:101170000301114301602178090605D5A26C0168BD
:1011800021F00C01114301602188C90505D5E26CED
:10119000016821F03001114301602188890505D5DE
:1011A000226D016821F0C0011143016021884905C9
:1011B00005D5626D016821F44071114301602188F9
:1011C000090505D5A26D016821F440611143016054
:1011D0002188C90407D5E26D016821F4405100E07F
:1011E0005FE0114301602188890405D5226E016802
:1011F00021F44041114301602168490205D5A26FE5
:10120000016821F080611143016021684FF0006A9C
:10121000890209D5E26F016821F000611143016084
:10122000E16F514500D1012721680A0700D5012748
:10123000490305D5626F016821F0407111430160D7
:101240002168090206D5D4F88020016821F0805178
:10125000114301602168490106D5D4F88420016852
:1012600021F00051114301602068000106D5D4F837
:101270008810286820F00070084328602068C000AB
:1012800006D5D4F88C10286820F0806008432860C8
:10129000DFF84891012E0ED02068B0F1007F0AD00F
:1012A0008FE04F4AD9F80030104023F4F81202437F
:1012B000C9F800201BE7D9F800004E4620F08060F6
:1012C000C9F80000FFF7A4FD804605E0FFF7A0FD88
:1012D000A0EB080064287BD830680001F6D42178A0
:1012E0003C487C30C90712D0616B81B9237A6268AF
:1012F0000168D0F800C09201C1F3014142EA014205
:10130000CCF3036142EA016141EA037101602168A3
:101310000A0303D5E26BB2F5801F04D0C9021AD5C7
:10132000216C594517D16368016894F80CC00268B4
:101330009B01C1F3014143EA0141C2F3027241EA58
:101340000C6141EA027101602968626A21F01F01A3
:10135000521E114329602168C90110D5238A626891
:101360000168D0F800C09201C1F3036142EA034270
:1013700042EA0162CCF3027142EA01710160216824
:1013800089010CD56168228A237B94F808C0890101
:1013900041EA024141EA036141EA0C7101603168AE
:1013A000B04641F080613160FFF732FD064604E04F
:1013B000FFF72EFD801B64280AD8D8F80000000132
:1013C000F6D5E7B3D9F800004E4620F0805009E08A
:1013D0007BE0000008380240007000400038024006
:1013E000FFFCFF0FC9F80000FFF712FD074604E0FD
:1013F000FFF70EFDC01B642867D83068C04380002B
:10140000F6D5216835480A0301D5E26B1AB1C90245
:101410001DD5216CD9B963690168277E02689B01DB
:10142000C1F3014143EA0143C2F3027143EA076297
:1014300042EA0171016029686FF0FF0300E04BE0B0
:10144000A26A21F4F85103EB0222114329602168BA
:10145000890212D5E16F51450FD1238C6269016871
:1014600007689201C1F3036142EA034242EA016262
:10147000C7F3027142EA017101602178090716D5AC
:1014800061690268D0F800C08B01277FC2F3036254
:10149000CCF3014143EA014141EA026141EA0771AB
:1014A00001602868E16A20F4403008432860306811
:1014B00040F080503060FFF7ABFC044608E000BF0E
:1014C000FFF7A6FC001B642802D90320BDE8F88FB3
:1014D0003068C0438000F3D40020F7E7883802402A
:1014E0002DE9F04705000F4663D0444E306800F008
:1014F0000F00B84209D2306820F00F003843306046
:10150000306800F00F00B84253D128683C4C810786
:1015100012D5400703D5206840F4E05020602878B9
:10152000000703D5206840F460402060A968206867
:1015300020F0F000084320602878C0072AD0304906
:1015400068680839012810D00968022810D0890776
:1015500000292EDA216821F0030101432160FFF701
:1015600057FC804641F288390DE009688903EFE7AE
:101570008901EDE7FFF74CFCA0EB0801494502D9D2
:101580000320BDE8F0876868216801F00C01B1EB29
:10159000800FEFD1306800F00F00B8420BD93068EF
:1015A00020F00F0038433060306800F00F00B84280
:1015B00001D00120E5E72878400705D5E9682068D3
:1015C00020F4E050084320602878000706D52869F9
:1015D000216821F4604141EAC000206000F036F843
:1015E0002168084AC1F30311515CC84006490860EC
:1015F0000020FFF727FC0020C3E70000003C02406A
:101600000838024030350008100000200449054821
:1016100009680068044AC1F38221515CC8407047E0
:1016200008380240100000204035000804490548F1
:1016300009680068044AC1F34231515CC8407047F0
:10164000083802401000002040350008154910B548
:101650001548096811F00C0213D01449042A0FD060
:10166000082A0ED10F4C241F2268236802F03F0283
:101670005B0207D52068C0F38810A0FB010106E0DB
:10168000084610BD2168C1F38811A1FB00010023A9
:10169000FEF7CEFD2168C1F30141491C4900B0FBB2
:1016A000F1F010BD083802400024F40040787D01BC
:1016B0002DE9F84F05004FF000076ED02878DFF8CD
:1016C0002093A9F1040AC007AAF104044CD0D9F868
:1016D00000104846C1F38101012908D00068C0F319
:1016E000810002280AD1DAF80000400206D52068FD
:1016F000800339D568680028DFD035E06868B0F528
:10170000803F0BD010B1B0F5A02F11D0206820F48D
:1017100080302060206820F4802002E0206840F4BF
:1017200080302060686890B1FFF772FB06460AE0DF
:10173000206840F480202060F0E700BFFFF768FBDE
:10174000801B642872D820688003F7D50CE0FFF76F
:101750005FFB064605E000BFFFF75AFB801B6428CD
:10176000F0D820688003F7D42878800742D5D9F8CC
:101770000010484611F00C0F08D00068C0F381003B
:1017800002280BD1DAF80000400207D42068800755
:1017900018D5E868012800D114E01EE1E8680028A7
:1017A000206817D040F001002060FFF731FB0646AB
:1017B00005E000BFFFF72CFB801B0228C2D8206881
:1017C0008007F7D52869216821F0F80141EAC000B7
:1017D00020600FE020F001002060FFF719FB0646B3
:1017E00005E000BFFFF714FB801B02281ED820680D
:1017F0008007F7D42878000729D5794869696C30C3
:1018000000298046016812D041F001010160FFF714
:10181000FFFA064605E000BFFFF7FAFA801B022830
:1018200004D8D8F800008007F6D510E089E021F050
:1018300001010160FFF7ECFA064604E0FFF7E8FA61
:10184000801B02287DD8D8F800008007F6D42878BD
:1018500040076BD5DFF8888108F13808D8F8000018
:10186000C0000BD4D8F8001041F08051C8F8001027
:10187000D8F80000012700F0805000905948016816
:10188000C90512D40168834641F480710160FFF7F5
:10189000BFFA064605E000BFFFF7BAFA801B6428CE
:1018A0004FD8DBF80000C005F6D54D4EA868683665
:1018B00001280AD008B1052811D0306820F00100B5
:1018C0003060306820F0040002E0306840F0010031
:1018D0003060A868A0B1FFF79BFA83460CE030683F
:1018E00040F004003060F0E7FFF792FAA0EB0B0144
:1018F00041F28830814268D830688007F4D50EE024
:10190000FFF786FA834607E0FFF782FAA0EB0B01A8
:1019100041F28830814258D830688007F4D42FB122
:10192000D8F8001021F08051C8F80010A869E0B381
:10193000D9F80010C1F3810102294ED00228206895
:1019400000E042E020F08070206003D0FFF760FAF2
:1019500005463DE0FFF75CFA064604E0FFF758FA5B
:10196000801B022831D820688001F7D4D5E90921ED
:10197000DFF874C0D5E9070695F830304F0895F8C0
:101980002C1030430CEB074545EA8212104340EA25
:10199000016040EA0370CAF80000206840F08070DF
:1019A0002060FFF735FA054605E014E0FFF730FA4E
:1019B000401B022809D820688001F7D50BE000BF42
:1019C000FFF726FA401B022802D90320BDE8F88F52
:1019D00020688001F4D40020F8E70120F6E7000039
:1019E00008380240007000400000FFFF401EB0F1C8
:1019F000807F10B501D3012010BD4FF0E02460615D
:101A00000F21601701F010F90020A061072121616A
:101A100010BD000070B590F83C20012A24D0134C72
:101A2000012580F83C50022280F83D20026853686E
:101A3000A242966802D00E4CA24203D14C6823F415
:101A4000700323430C6823F0700389681C435460BF
:101A5000002326F0800602683143916080F83D50F3
:101A600080F83C30184670BD022070BD0000014077
:101A70000004014010B5040003D094F83D0010B1FB
:101A800007E0012010BD002084F83C00204600F053
:101A90000DF8022084F83D002068211D00F086FD2D
:101AA000012084F83D00002010BD000008B500684A
:101AB0000649884208D10648016841F001010160E9
:101AC000006800F00100009008BD00000000014027
:101AD0004438024070B5044690F83C00012817D005
:101AE000324B012584F83C50022084F83D002268E6
:101AF0009068184020F47F4090600868502830D0EB
:101B00000DDC20284DD005DC98B310283BD148E0EF
:101B1000022070BD302844D0402834D139E06028FC
:101B200028D0702806D0B0F5805F2CD0B0F5005FCB
:101B300029D10AE04A682068D1E9021300F09CFD2F
:101B40002068816841F0770109E04A682068D1E99E
:101B5000021300F091FD2068816841F480418160AA
:101B600011E0CA684968206800F097FD206850219C
:101B700007E016E0CA684968206800F09FFD206809
:101B8000602100F082FD002084F83D5084F83C0084
:101B900070BDCA684968206800F07FFD2068402158
:101BA000EFE7226801461046EBE7000088FFFEFFE2
:101BB000704700002DE9F041026804460025D06915
:101BC0001168936810F00F0F5BD003F0010601F469
:101BD0009077374369D0C70707D0CF0505D50127D0
:101BE0001762E26F42F00102E267820708D5DA0766
:101BF00006D0276802223A62E26F42F00402E267EE
:101C0000420708D5DA0706D0236804221A62E26F79
:101C100042F00202E26702070AD501F020023243D5
:101C200006D0236808221A62E26F42F00802E267D7
:101C3000E26F002A32D0800605D5880603D5216ED2
:101C400009B1204688472168E06F8968490601D4B8
:101C5000000725D5204600F01AFE20688168490655
:101C600019D5816821F040018160E06E98B11A4970
:101C70000165E06EFEF736FE00280FD0E06E016DC4
:101C800006E0830611D58B060FD5216E12E02046A3
:101C9000BDE8F04108472046FFF78AFFBDE8F08124
:101CA0002046FFF785FFE567F8E7030605D50B0635
:101CB00003D5616E0029EAD1F0E74006EED548066B
:101CC000ECD513682021204623F0400313606167A0
:101CD000656600F0ADF9E1E7F127000810B50400F2
:101CE00002D0606F10B107E0012010BD002084F821
:101CF0007000204600F026F8242060672068016804
:101D000021F001010160204600F0DAFD0128ECD04D
:101D1000606A10B1204600F0E9FC2068416821F4B7
:101D2000904141602068816821F02A01816020682B
:101D3000016841F0010101602046BDE8104000F05B
:101D400039BD0000F0B587B0064614216846FEF79D
:101D5000B9FA34480025344F02223468103831492A
:101D60000323BC4236D10C6844F400240C6009689B
:101D700001F400210591016841F00401016000684F
:101D8000082100F0040005909802CDE903318DE8A8
:101D9000250026486946FEF749FF2648244C4105A0
:101DA000021584E8230083152046C4E903526561C7
:101DB000C4E9065325626562FEF776FE08B1FEF7B8
:101DC000D8FB0122F46634201146A663FFF782F89F
:101DD000342023E0184EB44222D10C6844F480240D
:101DE0000C60096801F480210591016841F0080147
:101DF00001600068072100F008000590CDE903317B
:101E00004FF4407069468DE825000C48FEF70EFF40
:101E1000022227201146FFF75DF82720FFF74CF834
:101E200007B0F0BD40380240004C004000080240BE
:101E3000B00100204060024000480040000C024019
:101E400070B50446806F20283FD149B342B394F85F
:101E50007000012839D0E06E012684F870600025FA
:101E600061652223A4F85820E567A367D0B118491B
:101E70001346C163E16E17480864E16E1648C864F2
:101E8000E06E0565666D2168E06E32462431FEF72E
:101E90007DFE38B11021E167202084F87050606722
:101EA000012070BD84F870502068016841F4807191
:101EB00001602068816841F00101816020688168CB
:101EC00041F040018160002070BD022070BD000023
:101ED0004B280008852800080528000870470000E6
:101EE000094810B50068C169C9434906FBD40748D1
:101EF000FEF7F3F9BDE8104082B2044902484FF4FE
:101F00007A7300F005B800003001002014000020B2
:101F10002DE9F8430446406F1F4616460D4620281B
:101F20004FD1CDB1C6B194F87000012849D001223B
:101F300084F8702021214FF00008C4F87C8061678C
:101F4000FEF766FF8146A068A4F85060A4F85260CE
:101F5000B0F5805F03D004E00120BDE8F88320697C
:101F600010B12E46002510E000260EE0802120460C
:101F700000F00EFEB8B9C6B116F8010B21688862F0
:101F8000B4F85200401EA4F85200B4F852004B4678
:101F90004FF0000200970028E8D14FF040012046A2
:101FA00000F0F6FD38B10320D7E735F8020B2168C1
:101FB000C0F30800E3E720216167002084F8708007
:101FC000CBE70220C9E7000070B5436F202B28D172
:101FD000B1B1AAB190F87030012B22D086680124EB
:101FE00080F87040002343662125C164B6F5805F08
:101FF000A0F85020A0F85220C367456702D003E044
:10200000012070BD016951B10749416680F8703007
:102010000068016841F080010160002070BD034943
:10202000F3E7022070BD0000552B0008152B0008B7
:102030007047FEE70346002010B5CA1701EB526453
:1020400024F07F02891ACAB2E111002902DD00BF23
:1020500042F080021A5400F10100EEDC10BD0000D5
:10206000401C802801DA401C7047B0F5804F01DA2F
:10207000801C70470349884201DAC01C7047001D6C
:1020800070470000FFFF1F002DE9F8430025884638
:10209000074614460090104600F082F88146FFF78C
:1020A000DFFF404502DDA81EBDE8F8832E466846E6
:1020B000314666F30701103101F0DAF9009849461C
:1020C000FFF7B8FF009908440090207A04281DD03B
:1020D0002FA1684601F0B8F90321684601F0C8F95C
:1020E000A17E66F30705E07E61F3410508B145F086
:1020F0000405680707D594F83D1094F83C0061F397
:10210000C40560F34515206C40B905E022A168467E
:1021100001F09AF90421E0E7A06C08B145F08005D0
:10212000E06C08B9606D08B145F040056846294685
:1021300001F09EF9218B684601F0A0F904F10C0131
:1021400068460EC901F0A9F9E07E68B124346846FA
:1021500094E80E00243C01F0A0F93034684694E87D
:102160000E00303C01F099F9280605D504F1400134
:1021700068460EC901F091F9680605D54C346846E9
:1021800094E80E0001F089F90098C01B8CE700006C
:102190004D514973647000004D51545400000000CB
:1021A00070B50446007A0025032802D0042802D026
:1021B00002E00C2500E00A2504F10C0007C800F03D
:1021C0007DF8E17E0544AD1C79B1243494E8070024
:1021D000243C00F073F83034064694E80700303CA5
:1021E00000F06CF8304405442D1D206C08B9A16C3A
:1021F00029B1D4E9111200F061F80544AD1CE06C7E
:1022000008B9616D29B1D4E9141200F057F80544FA
:10221000AD1C284670BD2DE9FC5F1C4690468946E2
:102220000746129EDDF838B0CDE90060DDF830A039
:102230005946DDE90F23204600F030F80546FFF748
:102240000FFF484503DD6FF00100BDE8FC9F302122
:1022500001A868F3C30164F342016AF3000101F0CD
:1022600007F901982946FFF7E5FE01990844019016
:10227000DDE90F2301A8594601F00FF9002C03DD19
:102280000D9901A801F0FAF8119932460198FEF76C
:1022900000F8019830440190C01BD6E770B50E4697
:1022A00011461A460446049D304600F007F82844BB
:1022B000002C00F1020000DD801C70BD10B510B1D3
:1022C000FEF70BF80146084610BD00007FB5154823
:1022D00000240125124900942A04019402940394D5
:1022E00080E81600856104610F4980F82040C0E94C
:1022F0000A14C561C46080F830404461FEF78EFA6C
:1023000008B1FEF736F90A206946CDE9000505480F
:102310000294FEF731F9002801D0FEF72AF97FBDBB
:1023200000200140280000200100000F094808B5E6
:10233000016841F40011016000680022114600F4B8
:10234000001000900D20FEF7C5FDBDE808400D20EF
:10235000FEF7B2BD3038024030B587B01421684670
:10236000FDF7B0FF1648016841F004010160016803
:1023700001F004010591016841F00201016001686A
:1023800001F002010591016841F008010160006857
:1023900044F281040B4D002200F008002146059014
:1023A0002846FEF72FFD002100940120CDE9010110
:1023B000284603916946FEF739FC07B030BD00009E
:1023C000303802400004024010B588B0184800249C
:1023D0001649D72240F2E733009401940294039403
:1023E00004940594069480E81600C0E9033444611F
:1023F0008461FFF73FFB08B1FEF7BBF84FF4805054
:1024000000900B486946FFF765FB08B1FEF7B1F88D
:10241000074804A9049405940694FFF7FBFA0028E2
:1024200001D0FEF7A6F808B010BD00000000014082
:10243000700000200D48002110B50B4C0C224FF409
:1024400061430460C0E90131C160C0E904128161E7
:10245000C16101624162FFF741FC002803D0BDE881
:102460001040FEF786B810BD004C0040B0000020C0
:102470000D48002110B50B4C0C224FF4E1330460E1
:10248000C0E90131C160C0E904128161C16101622A
:102490004162FFF723FC002803D0BDE81040FEF79F
:1024A00068B810BD0048004030010020FEE77047CA
:1024B00070477047FEF7B2BC30B5B7B0342124A8DE
:1024C000FDF700FF142131A8FDF7FCFE90216846BE
:1024D000FDF7F8FE1E48016841F080510160006878
:1024E00000F0805036901B48016841F44041016083
:1024F000006800250DF1B00C022424940822D82392
:10250000CDE92A4500F44040369010218CE81C00AB
:1025100001202F94CDE9270124A8FFF7C9F8FEF781
:102520000BFDE2024FF4A0510F20CDE9341231AA85
:10253000072182E8310031A8FEF7D2FF4FF4407046
:102540001495139500906846FEF72CFD37B030BD0A
:102550004038024000700040104A30B510481468FE
:1025600000210F4B44F470041460083305680D4AD1
:102570000D4C45F00105056019600368051D134009
:10258000074A03600C322C600568E305034C25F410
:1025900080250560803C1160236030BD88ED00E03F
:1025A00000380240FFFFF6FE10300024F0B5274B44
:1025B0004FF0804E264D02689842264E264F274CFB
:1025C00009D0704507D0A84205D0B04203D0B84228
:1025D00001D0A04205D1D1F804C022F070024CEA2B
:1025E000020298421BD0704519D0A84217D0B042C1
:1025F00015D0B84213D0A04211D0194DA8420ED028
:10260000184DA8420BD0184DA84208D0174DA8422B
:1026100005D0174DA84202D0164DA84203D1CD686F
:1026200022F440722A434D6922F080022A4302605C
:1026300098428A68C2620A68826201D0A04201D1CF
:102640000969016301214161F0BD00000000014002
:102650000004004000080040000C0040000401405D
:102660000040014000440140004801400018004083
:10267000001C00400020004042EA032283680A4315
:1026800023F47F410A4382607047826822F070021F
:102690000A4342F007018160704710B5036A046A7B
:1026A00023F00A0324F00104046284690B4324F03C
:1026B000F00141EA02118161036210BD10B5036AA5
:1026C00023F0100303628369046A23F4704324F047
:1026D000A00443EA0232826144EA0111016210BDA2
:1026E0000148FFF767BA0000B000002090F82410FE
:1026F000C90706D00168836A4A6822F400321A4387
:102700004A6090F82410890706D50168C36A4A68B0
:1027100022F480321A434A6090F82410490706D503
:102720000168036B4A6822F480221A434A6090F8D9
:102730002410090706D50168436B4A6822F4004259
:102740001A434A6090F82410C90606D50168836BC5
:102750008A6822F480521A438A6090F8241089060D
:1027600006D50168C36B8A6822F400521A438A6056
:1027700090F82410490611D50168036C4A6822F4C8
:1027800080121A434A60016CB1F5801F06D10168BE
:10279000436C4A6822F4C0021A434A6090F824103D
:1027A000090606D50168826C486820F400201043B1
:1027B0004860704738B500250446C567FEF728FB1A
:1027C00003462068006800070BD56FF07E4000903C
:1027D000002220464FF4001100F0DAF908B103207E
:1027E00038BD2020606784F87050A067002038BD95
:1027F00010B5806B0021A0F85A10A0F85210FFF716
:10280000D7F910BD70B5846B00252168606FA66F85
:102810008968090606D5212804D1A4F8525020461B
:1028200000F045F820688068400606D5222E04D1C5
:10283000A4F85A50204600F02AF8E06F40F010004B
:10284000E0672046FFF7B4F970BD10B5C169806B31
:10285000B1F5807F13D00021A0F85A102022016822
:102860000B6823F480730B6001688B6823F001030D
:102870008B6001688B6823F040038B608267FFF7F1
:102880002DFB10BD10B5806BFFF72AFB10BD10B5F6
:102890000168202200230C6824F490740C60016805
:1028A0008C6824F001048C608267036610BD0168A7
:1028B00020220B6823F0C0030B60426770470000C2
:1028C0002DE9F04104468068DFF818C2864F23687E
:1028D000D4E90452E16928431E6800250A4383496C
:1028E000104306EA0C0606431E604FF400422068BF
:1028F000E668436823F44053334343602368A66982
:10290000206AD3F808C030432CF4306606439E603A
:102910002068B8420AD1086810F0030052D001289C
:102920007BD002287AD003286ED186E0704B984283
:102930000AD1086810F00C0079D004287BD0082850
:1029400077D00C2860D178E06A4B98420AD10868A9
:1029500010F030006BD010286DD0202869D03028BE
:1029600052D16AE0644B98420AD1086810F0C00066
:102970005DD040285FD080285BD0C02844D15CE087
:102980005E4B98420DD1086810F440704FD0B0F5FE
:10299000807F50D0B0F5007F4BD0B0F5407F33D171
:1029A0004BE0574B98420FD1086810F4406009D0B3
:1029B000B0F5806F3FD0B0F5006F3AD0B0F5406F02
:1029C00022D13AE0012120E04E4B98420DD1086817
:1029D00010F440502BD0B0F5805F2CD0B0F5005FE4
:1029E00027D0B0F5405F0FD127E0474B98420BD17D
:1029F000086810F440401AD0B0F5804F1BD09042C8
:102A000017D0B0F5404F18D01021E0694FF6EF769F
:102A1000904238D109295DD202E00CE009E006E0DD
:102A2000DFE801F00D1027582A5858582D000021D2
:102A3000EBE70221E9E70421E7E70821E5E7FEF7F4
:102A4000E5FD01E0FEF7F2FD0146D4F8040049007F
:102A500001EB5001B1FBF0F080B2A0F11001B142E6
:102A600038D84FF6F0732168C0F342021840104383
:102A700024E026496068EBE7FEF7E8FDE4E76068DC
:102A80004FF48031E4E7092924D2DFE801F005089A
:102A900019231C2323231F00FEF7B8FD01E0FEF7D6
:102AA000C5FD0146D4F8040001EB5001B1FBF0F084
:102AB00080B2A0F11001B1420CD82168C8600AE0D0
:102AC00013496068F0E7FEF7C1FDEAE7606802EBD2
:102AD0005001EBE701250020206660662846BDE82E
:102AE000F0810000F369FFEF0010014090380240D0
:102AF0000044004000480040004C004000500040AE
:102B00000014014000780040007C00400048E801CB
:102B10000024F400416F212910D1B0F8521071B196
:102B2000C16C02680988C1F308019162C16C891CFB
:102B3000C164B0F85210491EA0F8521070470168E5
:102B40000A6822F080020A600068016841F04001D2
:102B500001607047416F21290ED1B0F8521061B168
:102B6000C16C026809789162C16C491CC164B0F8FB
:102B70005210491EA0F85210704701680A6822F0EE
:102B800080020A600068016841F0400101607047FE
:102B90002DE9F041984617460E460446069D08E08A
:102BA000681C06D0FEF734F9A0EB0800A8420BD849
:102BB00055B12068C06936EA000017D00020B8423D
:102BC000EED00020BDE8F0812168202000220B68B3
:102BD00023F4D0730B6021688B6823F001038B60B2
:102BE0006067A067032084F87020EBE70120E6E728
:102BF0000148FEF7DFBF000030010020FEE70000C3
:102C00000FB4084B10B504A902AA039800F02CF8E1
:102C1000044602A9002000F0C8F9204610BC5DF867
:102C200014FB0000AB2F0008090700284FEA1161D0
:102C300004DB00F1E02080F80014704700F00F0082
:102C400000F1E02080F8141D704702E008C8121F50
:102C500008C1002AFAD170477047002001E001C185
:102C6000121F002AFBD170472DE9FF4F8BB0884619
:102C70000546002606E025280BD0DDE90D12904719
:102C80006D1C761C28780028F5D10FB03046BDE8C1
:102C9000F08F0024A146A2460122AE4900E0044381
:102CA00015F8013F203B02FA03F00842F7D12878DB
:102CB0002A2810D06FF02F022878A0F130010929BE
:102CC00015D809EB890102EB410144F0020400EB45
:102CD00001096D1CF0E758F8041B5FEA010903D5F0
:102CE00044F40054C9F1000944F002046D1C287832
:102CF0002E2817D115F8010F44F004042A280ED00D
:102D00006FF02F022878A0F1300109290AD80AEBC8
:102D10008A0102EB410100EB010A6D1CF2E758F851
:102D200004AB6D1C28786C280FD006DC4C2817D01B
:102D300068280DD06A2814D104E0742810D07A28AD
:102D40000FD10DE044F400140AE044F4801401E0D3
:102D500044F440146978814202D104F580146D1C5A
:102D60006D1C2878692865D006DC00288DD0632882
:102D700027D0642806D15DE06E2808D073282AD0B9
:102D8000752877D0DDE90D129047761CE0E0C4F39A
:102D90000250022809D003280DD0D8F800100428CA
:102DA0000DD00E6008F10408D2E0D8F80010F21738
:102DB000C1E90062F6E7D8F800100E80F2E70E7065
:102DC000F0E718F8041B8DF8001000208DF80100C2
:102DD000EB46012003E058F804BB4FF0FF306107D9
:102DE0004FF0000701D40AE07F1C57450DDA8742F7
:102DF000FADB1BF807100029F6D106E07F1C87429A
:102E0000FCDB1BF807100029F8D1DDE90D23A9EB45
:102E100007008146214600F0B1F83044C61904E0AD
:102E2000DDE90D121BF8010B90477F1EF8D22146F9
:102E3000484688E058F8040BC4F302514FF00A0BDF
:102E4000032900D100B2042900D140B2002802DADF
:102E500040422D2102E0210505D52B218DF82410BB
:102E6000012104E006E0E10710D02021F6E708AFD9
:102E7000089113E058F8040BC4F302514FF00A0B09
:102E8000032900D180B2042900D1C0B20021EEE7AD
:102E90005946FDF729FA303107F8011D0028F7D10E
:102EA000ADEB070000F1200B600702D524F480345D
:102EB00001E04FF0010ADA4502DDAAEB0B0000E069
:102EC0000020824600EB0B0108980144A9EB0100A9
:102ED0000A90E00306D4DDE90D2321460A9800F0AC
:102EE0004DF806444FF0000908E009A911F809005F
:102EF000DDE90D12904709F10109761C0899894511
:102F0000F3DBE0030CD5DDE90D2321460A9800F040
:102F100035F8064404E0DDE90D1230209047761CB8
:102F2000BAF10001AAF1010AF5DC05E0DDE90D12B4
:102F300017F8010B9047761CBBF10001ABF1010BB8
:102F4000F4DC0A982146DDE90D2300F005F806447B
:102F50006D1C97E6092801002DE9F0410446002583
:102F60001E461746880404D405E039462020B047A1
:102F70006D1C641EF9D52846BDE8F0812DE9F041AD
:102F8000044600251E469046C80301D5302700E0C0
:102F90002027880404D505E041463846B0476D1C1B
:102FA000641EF9D52846BDE8F0810A68531C0B6001
:102FB0001070704700B591B00B460BA102466846F1
:102FC000FFF71EFE684600F0CFF940F6AC50FDF763
:102FD0001BFE022142F2107209A000F00DFA002837
:102FE00000D0012011B000BD41542B43574A41503D
:102FF0003D222573222C222573220D0A0000000099
:103000004F4B00000F4970B508600FA000F0ACF9FD
:103010004FF47A76022132460DA000F0EDF9002837
:103020000ED00C4D00240CA02C7000F09DF9022154
:10303000324607A000F0E0F9002801D001202C70F2
:1030400070BD000000000020415445300D0A000012
:103050004F4B00001400002041540D0A00000000F6
:10306000D0B0FDF7E3FEFFF727FAFFF775F9FFF79A
:103070005DF9FFF72BF9FFF7A7F9FFF7DBF9FFF78A
:10308000F7F9824E4FF4804711E0002230460121CB
:10309000FDF7B8FE002230468021FDF7B3FE012285
:1030A00039463046FDF7AEFE6420FDF7ADFD7848A9
:1030B000FFF7A8FF0028E8D0764D01220024114632
:1030C00030462C70FDF79EFE012230468021FDF730
:1030D00099FE012239463046FDF794FE4FF4FA7806
:1030E0004046FDF791FD0FE0002230460121FDF73B
:1030F00089FE012230468021FDF784FE00223946F8
:103100003046FDF77FFE2C7063A166A0FFF752FFEB
:103110000028E9D00122304611462C70FDF772FEDE
:10312000012230468021FDF76DFE012239463046EE
:10313000FDF768FE4046FDF767FD41F2883A43F629
:10314000DB7815E00A21524658A000F055F9A8B1E5
:10315000002230460121FDF755FE01223046802134
:10316000FDF750FE012239463046FDF74BFE2C702C
:1031700052A0414600F0CCF80028E3D00122B1462D
:1031800011464846FDF73EFE012230468021FDF7FC
:1031900039FE0122BB4639463046FDF733FE4FF477
:1031A0007A70FDF731FD4B49582239A82C70FDF794
:1031B00070F849A6C8273046FDF78FF81420ADF8FF
:1031C000FC0049A13C9101218DF8FE1047A04990D7
:1031D00049A14C9139AA394607A8FEF755FF81B29B
:1031E00007A800F0D7F82C700FF21C183046FDF736
:1031F00074F800230690CDE90446CDE9028407A8BF
:103200001A46394600940194FFF705F880B28046CB
:10321000014607A800F0BEF84E465F462C7001221A
:1032200011463046FDF7EEFD012230468021FDF7C4
:10323000E9FD012239463046FDF7E4FD07A8414685
:1032400000F0A8F810B102281BD10BE00022304694
:103250000121FDF7D7FD002230468021FDF7D2FD88
:1032600001220AE0012230461146FDF7CBFD002283
:1032700030468021FDF7C6FD002239463046FDF775
:10328000C1FD50462C70FDF7BFFCC8E700040240AA
:10329000B00000201400002038383838383838386A
:1032A000000000004E384E4E59000000414C52457F
:1032B000415920434F4E4E45435400007461696CA0
:1032C0006F722E636C6F75646D7174742E636F6DA5
:1032D00000000000D034000848454C4C4F204E38C8
:1032E0004E4E5921212121006D65000074697A78C4
:1032F000696E62700000000075383133654C514BC7
:10330000484D726E000000005465737400000000A8
:1033100000B58DB00B460BA102466846FFF770FC66
:10332000684600F021F84FF4FA70FDF76DFC0621B5
:1033300041F288320AA000F05FF8002800D0012096
:103340000DB000BD41542B43495053544152543D9C
:1033500022544350222C222573222C25640D0A006E
:103360004C696E6B6564000010B50446084800683F
:10337000C169C9434906FBD42046FCF7AEFF21468C
:10338000BDE8104082B202484FF47A73FEF7C0BD28
:10339000B000002030B591B005460C460A460FA19A
:1033A0006846FFF72DFC6846FFF7DEFF6420FDF757
:1033B0002BFC0E4822462946FEF706FE4FF4FA7013
:1033C000FDF722FC04214FF47A7209A000F014F8F2
:1033D00010B1002011B030BD0220FBE741542B4357
:1033E000495053454E443D25640D0A00B00000206D
:1033F00053454E44000000002DE9F04100240F46E3
:103400000F490C2280460F48FEF71AFD0C4E00258E
:103410000DE000BF18F80400715D814201D1641C09
:10342000E4B2BC4202D10120BDE8F0816D1C044829
:10343000FCF753FFA842EDD800203070F4E70000FD
:1034400014000020B000002070B504460E46084667
:10345000FCF743FF05460146204600F00FF82068C0
:103460002A463146FCF715FF20682844206070BDCD
:10347000026811700168491C0160704710B502684C
:10348000CB1701EB13631C0A14700268521C026014
:1034900011700168491C016010BD70B5141E1E46F4
:1034A00005460BDD1146FFF7E9FF28683146224645
:1034B000FCF7EFFE28682044286070BD19B1BDE814
:1034C0007040FFF7C1BFBDE870400021FFF7D6BFD5
:1034D0004D515443000000000400000000000000B3
:1034E00000000000000000003C0001004D51545756
:1034F00000000000000000000000000000000000CC
:1035000000000000000000000000000000000000BB
:1035100000000000000000000000000000000000AB
:103520000000000000000000000610160006101643
:103530000000000000000000010203040607080963
:1035400000000000010203046835000800000020AC
:10355000140000004A2C00087C35000814000020EC
:10356000FC0500005A2C00080000000001000000CB
:0C35700010000000000000000024F40027
:04000005080001F9F5
:00000001FF
