:020000040800F2
:10000000A00500200D0200083B1F0008811D00080C
:10001000391F0008990400088D2500080000000021
:100020000000000000000000000000003F1F00086A
:100030009B040008000000003D1F0008411F00084D
:1000400027020008270200082702000827020008EC
:1000500027020008270200082702000827020008DC
:1000600027020008270200082702000827020008CC
:1000700027020008270200082702000827020008BC
:10008000270200082702000855030008270200087D
:10009000270200082702000827020008270200089C
:1000A000270200083920000827020008270200085C
:1000B000270200082702000827020008270200087C
:1000C000270200082702000827020008270200086C
:1000D00027020008270200082702000881250008DF
:1000E000270200082702000827020008270200084C
:1000F000270200082702000827020008270200083C
:10010000270200082702000827020008270200082B
:10011000892100082702000827020008270200089A
:10012000270200082702000827020008270200080B
:1001300027020008270200082702000827020008FB
:1001400027020008270200082702000827020008EB
:1001500027020008270200082702000827020008DB
:1001600027020008270200082702000827020008CB
:1001700027020008270200082702000800000000EC
:1001800027020008270200082702000827020008AB
:10019000270200082702000827020008270200089B
:1001A000270200082702000827020008270200088B
:1001B000270200082702000827020008270200087B
:1001C000270200082702000800000000270200089C
:1001D000270200082702000827020008270200085B
:1001E000270200082702000827020008270200084B
:1001F0002702000827020008DFF80CD000F098F86A
:100200000048004761280008A005002006488047F4
:1002100006480047FEE7FEE7FEE7FEE7FEE7FEE7EB
:10022000FEE7FEE7FEE7FEE7E51F0008F90100082C
:100230002DE9F05F0546002092469B46884606461B
:10024000814640241BE0284641464746224600F0AE
:100250005EF853465A46C01A914110D311461846CB
:10026000224600F045F82D1A67EB01084F4622465A
:100270000120002100F03CF817EB00094E41201E40
:10028000A4F10104DFDC484631462A464346BDE876
:10029000F09FD2B201E000F8012B491EFBD270475B
:1002A0000022F6E710B513460A4604461946FFF742
:1002B000F0FF204610BD421C10F8011B0029FBD1A5
:1002C000801A704730B50B460146002020220124D9
:1002D00009E021FA02F59D4205D303FA02F5491B14
:1002E00004FA02F52844151EA2F10102F1DC30BD2A
:1002F000202A04DB203A00FA02F1002070479140E6
:10030000C2F1200320FA03F3194390407047202ADA
:1003100004DB203A21FA02F00021704721FA02F3AF
:10032000D040C2F1200291400843194670470000B6
:10033000064C074D06E0E06840F0010394E8070032
:1003400098471034AC42F6D3FFF75AFF182A00083A
:10035000382A0008014800F057B9000018000020B2
:100360004A496FF0706210B5D1F8043323F440337A
:10037000C1F80433D1F8043344682343C1F804338B
:1003800001684B6823F480734B60016803694C6813
:1003900044EA03234B6001684B6823F040734B60D1
:1003A000016884684B6823434B6001688B6823F4C1
:1003B00000638B600168C4688B6823438B60816A2B
:1003C000D14201688A6822F070628A6001680DD0AB
:1003D000836A8A681A438A6001688A6822F04052F8
:1003E0008A600168C36A8A681A4302E08A6822F058
:1003F00040528A6001688A6822F002028A600168BD
:1004000082698B6843EA42028A6090F820100029D2
:10041000016811D01E4A4B6843F400634B600168C9
:100420004B6823F460434B600168446A4B6802EBFD
:10043000443213434B6003E04A6822F400624A608E
:100440000168144BCA6A22F47002CA620168848B84
:10045000CA6A03EB04531A43CA6201688A6822F429
:1004600000728A60016890F830208B6843EA42226B
:100470008A6001688A6822F480628A600168406943
:100480008A6842EA8020886010BD00000020014098
:1004900000E0FFFF0000F0FFFEE770477047704785
:1004A000F8B50025009590F83C20012A18D00122CB
:1004B00080F83C200A6807234E4C0668092A1AD99E
:1004C0000A3A02EB4207F268BB409A43F2600E68B8
:1004D0000268A64206D10B7AD66846EA036308E0B2
:1004E0000220F8BD0A3E8B68D76806EB4606B3408B
:1004F0003B43D3600EE002EB42073269BB409A43B4
:10050000326103680E788A681F6906EB4606B240BE
:100510003A431A614A681F23072A13D20668521EFB
:1005200002EB8207726BBB409A43726303680E79D9
:100530000A88761E5F6B92B206EB8606B2403A439B
:100540005A6327E006680D2A12D2D21F02EB8207F7
:10055000326BBB409A43326302680E790B88F61FF8
:10056000176B9BB206EB8606B3403B43136311E067
:100570000D3A02EB8207F26ABB409A43F2620268CC
:100580000E790B880D3ED76A9BB206EB8606B34008
:100590003B43D362184A0368934208D10B68122B7D
:1005A00005D1D2F8043343F48003C2F8043303685E
:1005B00093421AD10B68A34201D0112B15D1D2F866
:1005C000043343F40003C2F804330968A1420CD198
:1005D0000A490B4A0968B1FBF2F101EB81014900BC
:1005E00000E0491E00910029FBD180F83C5000201A
:1005F000F8BD00001200001000200140140000208F
:1006000040420F007047704770B5044600680168AB
:100610004268C1F34001C2F3401251B34AB3216CA6
:10062000C90603D4216C41F400712164816811F082
:10063000405F17D1A169A9B9C16A11F4700F02D046
:10064000816849050ED4416821F020014160206C89
:1006500020F480702064206CC00403D4206C40F02F
:10066000010020642046FFF7CDFF21686FF01200E3
:100670000860206801684268C1F38001C2F3C012BB
:1006800089B382B3216CC90603D4216C41F40051B3
:100690002164816811F4401F1ED1816B11F4401F49
:1006A00002D08168490517D44168490514D481688E
:1006B00011F0405F10D1A16971B9416821F080014A
:1006C0004160206C20F480502064206CC00503D46D
:1006D000206C40F0010020642046FFF7E0FE216816
:1006E0006FF00C00086020680168436811F0010F8A
:1006F000C3F380110ED069B10068C0070AD0206C26
:1007000040F480302064204600F046F821686FF005
:1007100001000860206801684268C1F340110029A7
:10072000C2F380620DD0002A0BD0616C6FF02005FF
:1007300041F00201616405602046FFF764FF206814
:10074000056070BD70B504004FF0000503D0206C4B
:10075000002610B107E0012070BD204600F01EF811
:10076000666484F83C60206CC00610D4206C20F4D1
:10077000885040F0020020642046FFF7F1FD6664D7
:10078000206C20F0020040F00100206400E0012510
:1007900084F83C60284670BD7047000010B586B0F4
:1007A000044614216846FFF77BFD154920688842FE
:1007B00023D11448016841F480710160006800F49D
:1007C000807005900F481438016841F00401016001
:1007D00000680321002200F00400059001208DE84C
:1007E00007000948694600F035F80022012112206F
:1007F00000F084F9122000F073F906B010BD00007B
:1008000000200140443802400008024090F83510B2
:10081000022903D08021416501207047052180F81D
:1008200035100068016821F0010101600020704767
:1008300070B5044600F000F90546601C02D004487B
:100840000078044400F0F8F8401BA042FAD370BDD1
:10085000080000202DE9F84FDFF89CE100224FF05E
:1008600001084FF0030B4FF00F0A00BF0B6808FAA6
:1008700002F42340A34271D14D68022D01D0122D04
:100880000FD1D5080E69570700EB8505A9462D6ADB
:10089000FF0E0AFA07FCBE4025EA0C052E43C9F8F4
:1008A00020600F79550006680BFA05FC07F0030776
:1008B00026EA0C06AF40374307604E68012E05D08C
:1008C000022E03D0112E01D0122E0ED18668CF68D1
:1008D00026EA0C06AF403743876046680F79A64387
:1008E000C7F30017974037434760C4688E6824EA0F
:1008F0000C04AE402643C6604C68E40075D53F4CFE
:10090000256845F480452560246822F00306950794
:1009100004F4804400943A4C2D0F2644D6F808483D
:10092000DFF8E0C00AFA05F7604524EA070401D1C0
:1009300000272EE0344FB84201D1012729E0334F80
:10094000B84201D1022724E0314FB84201D1032738
:100950001FE0304FB84202D104271AE045E02E4F85
:10096000B84201D1052714E02C4FB84201D1062727
:100970000FE02B4FB84201D107270AE0294FB842B8
:1009800001D1082705E0284FB84201D1092700E02E
:100990000A27AF4027437546C6F808784E68DEF848
:1009A0000040F60324EA030400D51C43124E2C60D9
:1009B000361D4D683468AD0324EA030400D51C439A
:1009C0000D4F346008374D683C68ED0224EA03049B
:1009D00000D51C43084D3C600C354E682C68B602AF
:1009E00024EA030400D51C432C60521C102AFFF497
:1009F0003DAFBDE8F88F0000003C014044380240A4
:100A000000300140000002400004024000080240A3
:100A1000000C024000100240001402400018024086
:100A2000001C024000200240002402400AB1816103
:100A300070470904FBE70000014880687047000028
:100A400008000020024881680278114481607047E4
:100A500008000020032010B500F070F8002000F01E
:100A600005F800F023F8002010BD000070B50D4D12
:100A700004464FF47A700C4A29781268B0FBF1F002
:100A8000B2FBF0F000F0C6FD48B9102C07D20022EE
:100A90002146501E00F032F800206C6070BD01202D
:100AA00070BD000008000020140000200B4882B038
:100AB000016841F080510160006800F080500090B2
:100AC0000648001D016841F480410160006800F49F
:100AD00080400090052002B000F030B8403802405D
:100AE000002809DB410900F01F028900012001F103
:100AF000E0219040C1F80001704700000E4BF0B4B7
:100B00001B680D46C3F30223C3F10706042E00D968
:100B10000426191D072901D2002300E0DB1E012451
:100B200004FA06F19C40491E2940641E9940144075
:100B30002143F0BC01F040BD0CED00E0064900F09F
:100B4000070210B54FF6FF040868044B204040EA46
:100B500002201843086010BD0CED00E00000FA050B
:100B60001848F8B5016841F0805101600068164CE2
:100B700000F080500090206840F480302060FFF743
:100B80005BFF4FF47A76054605E000BFFFF754FFA0
:100B9000401BB0420FD86068C003F7D5206840F40E
:100BA00000302060FFF748FF054606E0FFF744FFEE
:100BB000401BB04201D90320F8BD60688003F5D521
:100BC0000020F8BD40380240007000402DE9F84F89
:100BD00004460078DFF824944FF000063746C0073B
:100BE0000ED0D9F8001021F40001C9F80010D9F88E
:100BF0000010626B1143C9F80010606B00B9012648
:100C0000FE4D2068843500030ED5E16B286820F482
:100C1000401008432860E06BB0F5801F01D010B190
:100C200002E0012600E0012720684FF4800BC0029B
:100C30000CD5216C286820F4400008432860206C03
:100C4000584501D1012601E000B901272068C10102
:100C500000D50126800666D5E8483830016841F0A5
:100C6000805101600068DFF898A300F08050009088
:100C7000DAF8001041F48071CAF80010FFF7DCFECA
:100C8000804605E0FFF7D8FEA0EB080064287DD879
:100C9000DAF80000C005F5D5DFF8608308F16808D0
:100CA000D8F8000010F440702AD0218E01F4407171
:100CB000814225D0D8F80010D8F8002021F44071E6
:100CC00042F48032C8F80020D8F8002022F48032A4
:100CD000C8F80020C8F80010D8F80000C0070FD0EE
:100CE000FFF7AAFE824607E0FFF7A6FEA0EB0A0187
:100CF00041F288308142CAD8D8F800008007F3D585
:100D0000206BC0F3012103297ED0D9F8001021F413
:100D1000F811C9F80010228ED8F80010C2F30B02A7
:100D20001143C8F800102078C00607D5286820F0C5
:100D3000807028602868A16B084328602188AF482C
:100D40008830490405D5626E016821F440311143B1
:100D500001602188090405D5A26E016821F44021B3
:100D6000114301602168C90305D5E26E016821F4D1
:100D70004011114301602168890305D5226F016884
:100D800021F4400111430160217800E034E149067B
:100D900005D5626C016821F00301114301602178DF
:100DA000090605D5A26C016821F00C011143016010
:100DB0002188C90505D5E26C016821F03001114395
:100DC00001602188890505D5226D016821F0C001E7
:100DD000114301602188490505D5626D016821F440
:100DE0004071114301602188090505D5A26D016894
:100DF00021F44061114301602188C90407D5E26DE7
:100E0000016821F4405100E05FE011430160218856
:100E1000890405D5226E016821F440411143016027
:100E20002168490205D5A26F016821F08061114354
:100E3000016021684FF0006A890209D5E26F0168FC
:100E400021F0006111430160E16F514500D101279C
:100E500021680A0700D50127490305D5626F01689B
:100E600021F04071114301602168090206D5D4F8D0
:100E70008020016821F080511143016021684901FF
:100E800006D5D4F88420016821F000511143016097
:100E90002068000106D5D4F88810286820F000707A
:100EA000084328602068C00006D5D4F88C10286854
:100EB00020F0806008432860DFF84891012E0ED0B2
:100EC0002068B0F1007F0AD08FE04F4AD9F8003097
:100ED000104023F4F8120243C9F800201BE7D9F8A8
:100EE00000004E4620F08060C9F80000FFF7A4FD26
:100EF000804605E0FFF7A0FDA0EB080064287BD842
:100F000030680001F6D421783C487C30C90712D003
:100F1000616B81B9237A62680168D0F800C09201E0
:100F2000C1F3014142EA0142CCF3036142EA0161AB
:100F300041EA0371016021680A0303D5E26BB2F54F
:100F4000801F04D0C9021AD5216C594517D1636896
:100F5000016894F80CC002689B01C1F3014143EAA7
:100F60000141C2F3027241EA0C6141EA027101607F
:100F70002968626A21F01F01521E1143296021680D
:100F8000C90110D5238A62680168D0F800C09201B7
:100F9000C1F3036142EA034242EA0162CCF3027107
:100FA00042EA01710160216889010CD56168228AD9
:100FB000237B94F808C0890141EA024141EA0361B8
:100FC00041EA0C7101603168B04641F080613160E6
:100FD000FFF732FD064604E0FFF72EFD801B642874
:100FE0000AD8D8F800000001F6D5E7B3D9F8000018
:100FF0004E4620F0805009E07BE0000008380240B7
:101000000070004000380240FFFCFF0FC9F80000EC
:10101000FFF712FD074604E0FFF70EFDC01B642832
:1010200067D83068C0438000F6D5216835480A0388
:1010300001D5E26B1AB1C9021DD5216CD9B963691A
:101040000168277E02689B01C1F3014143EA014325
:10105000C2F3027143EA076242EA01710160296842
:101060006FF0FF0300E04BE0A26A21F4F85103EBBC
:101070000222114329602168890212D5E16F51458E
:101080000FD1238C6269016807689201C1F3036183
:1010900042EA034242EA0162C7F3027142EA017185
:1010A00001602178090716D561690268D0F800C08F
:1010B0008B01277FC2F30362CCF3014143EA014174
:1010C00041EA026141EA077101602868E16A20F49F
:1010D000403008432860306840F080503060FFF7AF
:1010E000ABFC044608E000BFFFF7A6FC001B642829
:1010F00002D90320BDE8F88F3068C0438000F3D4E4
:101100000020F7E7883802402DE9F04705000F4638
:1011100063D0444E306800F00F00B84209D2306806
:1011200020F00F0038433060306800F00F00B84204
:1011300053D128683C4C810712D5400703D520685D
:1011400040F4E05020602878000703D5206840F480
:1011500060402060A968206820F0F000084320600B
:101160002878C0072AD0304968680839012810D08B
:101170000968022810D0890700292EDA216821F099
:10118000030101432160FFF757FC804641F2883993
:101190000DE009688903EFE78901EDE7FFF74CFCF3
:1011A000A0EB0801494502D90320BDE8F087686833
:1011B000216801F00C01B1EB800FEFD1306800F035
:1011C0000F00B8420BD9306820F00F003843306070
:1011D000306800F00F00B84201D00120E5E7287820
:1011E000400705D5E968206820F4E05008432060F6
:1011F0002878000706D52869216821F4604141EA72
:10120000C000206000F036F82168084AC1F30311DD
:10121000515CC840064908600020FFF727FC002009
:10122000C3E70000003C024008380240002A0008E2
:10123000140000200449054809680068044AC1F305
:101240008221515CC84070470838024014000020D9
:10125000102A00080449054809680068044AC1F3D7
:101260004231515CC84070470838024014000020E9
:10127000102A0008154910B51548096811F00C022C
:1012800013D01449042A0FD0082A0ED10F4C241F62
:101290002268236802F03F025B0207D52068C0F392
:1012A0008810A0FB010106E0084610BD2168C1F3CB
:1012B0008811A1FB00010023FEF7BAFF2168C1F3EA
:1012C0000141491C4900B0FBF1F010BD0838024053
:1012D0000024F40040787D012DE9F84F05004FF01F
:1012E00000076ED02878DFF82093A9F1040AC00720
:1012F000AAF104044CD0D9F800104846C1F381018A
:10130000012908D00068C0F3810002280AD1DAF868
:101310000000400206D52068800339D5686800289F
:10132000DFD035E06868B0F5803F0BD010B1B0F584
:10133000A02F11D0206820F480302060206820F495
:10134000802002E0206840F480302060686890B11E
:10135000FFF772FB06460AE0206840F48020206018
:10136000F0E700BFFFF768FB801B642872D8206895
:101370008003F7D50CE0FFF75FFB064605E000BFF2
:10138000FFF75AFB801B6428F0D820688003F7D44D
:101390002878800742D5D9F80010484611F00C0F84
:1013A00008D00068C0F3810002280BD1DAF80000F1
:1013B000400207D42068800718D5E868012800D1CA
:1013C00014E01EE1E8680028206817D040F0010012
:1013D0002060FFF731FB064605E000BFFFF72CFB5E
:1013E000801B0228C2D820688007F7D528692168A9
:1013F00021F0F80141EAC00020600FE020F0010078
:101400002060FFF719FB064605E000BFFFF714FB5D
:10141000801B02281ED820688007F7D42878000790
:1014200029D5794869696C3000298046016812D055
:1014300041F001010160FFF7FFFA064605E000BF39
:10144000FFF7FAFA801B022804D8D8F800008007BA
:10145000F6D510E089E021F001010160FFF7ECFA18
:10146000064604E0FFF7E8FA801B02287DD8D8F88A
:1014700000008007F6D4287840076BD5DFF8888114
:1014800008F13808D8F80000C0000BD4D8F80010D4
:1014900041F08051C8F80010D8F80000012700F092
:1014A0008050009059480168C90512D401688346EC
:1014B00041F480710160FFF7BFFA064605E000BF06
:1014C000FFF7BAFA801B64284FD8DBF80000C0058C
:1014D000F6D54D4EA868683601280AD008B105280F
:1014E00011D0306820F001003060306820F0040036
:1014F00002E0306840F001003060A868A0B1FFF75A
:101500009BFA83460CE0306840F004003060F0E75E
:10151000FFF792FAA0EB0B0141F28830814268D8C4
:1015200030688007F4D50EE0FFF786FA834607E0BF
:10153000FFF782FAA0EB0B0141F28830814258D8C4
:1015400030688007F4D42FB1D8F8001021F0805112
:10155000C8F80010A869E0B3D9F80010C1F3810100
:1015600002294ED00228206800E042E020F080707E
:10157000206003D0FFF760FA05463DE0FFF75CFA14
:10158000064604E0FFF758FA801B022831D820688D
:101590008001F7D4D5E90921DFF874C0D5E9070641
:1015A00095F830304F0895F82C1030430CEB074578
:1015B00045EA8212104340EA016040EA0370CAF82B
:1015C0000000206840F080702060FFF735FA054683
:1015D00005E014E0FFF730FA401B022809D8206824
:1015E0008001F7D50BE000BFFFF726FA401B022869
:1015F00002D90320BDE8F88F20688001F4D40020D0
:10160000F8E70120F6E700000838024000700040CB
:101610000000FFFF401EB0F1807F10B501D3012014
:1016200010BD4FF0E02460610F21601700F0C4FF8F
:101630000020A0610721216110BD704770477047ED
:1016400070B590F83C20012A24D0134C012580F875
:101650003C50022280F83D2002685368A2429668FE
:1016600002D00E4CA24203D14C6823F470032343F2
:101670000C6823F0700389681C435460002326F033
:10168000800602683143916080F83D5080F83C301C
:10169000184670BD022070BD0000014000040140EA
:1016A00010B5040003D094F83D0010B107E001200C
:1016B00010BD002084F83C00204600F00DF8022008
:1016C00084F83D002068211D00F0C4FC012084F84E
:1016D0003D00002010BD000008B500680B4988429D
:1016E00012D10B48016841F001010160006800223D
:1016F000012100F0010000901920FFF7FFF9BDE87B
:1017000008401920FFF7ECB908BD000000000140B7
:101710004438024070B5044690F83C00012817D0C8
:10172000324B012584F83C50022084F83D002268A9
:101730009068184020F47F4090600868502830D0AE
:101740000DDC20284DD005DC98B310283BD148E0B3
:10175000022070BD302844D0402834D139E06028C0
:1017600028D0702806D0B0F5805F2CD0B0F5005F8F
:1017700029D10AE04A682068D1E9021300F0D0FCC0
:101780002068816841F0770109E04A682068D1E962
:10179000021300F0C5FC2068816841F4804181603B
:1017A00011E0CA684968206800F0CBFC206850212D
:1017B00007E016E0CA684968206800F0D3FC20689A
:1017C000602100F0B6FC002084F83D5084F83C0015
:1017D00070BDCA684968206800F0B3FC20684021E9
:1017E000EFE7226801461046EBE7000088FFFEFFA6
:1017F000704770B50446006800250169C943890730
:1018000015D4C168C943890711D4EA1E02610121B8
:101810002177206880698007204602D0FFF7E8FF23
:1018200004E000F0A7F8204600F0A5F8257720682E
:101830000169C943490717D4C168C943490713D48B
:1018400002216FF00402026121772068806910F4A0
:10185000407F204602D0FFF7CBFF04E000F08AF87B
:10186000204600F088F8257720680169C9430907F8
:1018700016D4C168C943090712D404216FF00802C5
:10188000026121772068C0698007204602D0FFF7F7
:10189000AFFF04E000F06EF8204600F06CF825770A
:1018A00020680169C943C90617D4C168C943C9067C
:1018B00013D408216FF01002026121772068C069FB
:1018C00010F4407F204602D0FFF792FF04E000F0C2
:1018D00051F8204600F04FF8257720680169C94388
:1018E000C90708D1C168C943C90704D1891E01616C
:1018F000204600F041F820680169C943090609D46F
:10190000C168C943090605D46FF080010161204612
:10191000FFF794FE20680169C943C90509D4C1686D
:10192000C943090605D46FF4807101612046FFF7B1
:1019300084FE20680169C943490609D4C168C943C6
:10194000490605D46FF040010161204600F015F80A
:1019500020680169C94389060BD4C168C943890657
:1019600007D46FF0200101612046BDE87040FFF709
:1019700066BE70BD70477047704770477047000083
:101980002DE9F041026804460025D069116893688A
:1019900010F00F0F5BD003F0010601F4907737438E
:1019A00069D0C70707D0CF0505D501271762E26FB9
:1019B00042F00102E267820708D5DA0706D02768FD
:1019C00002223A62E26F42F00402E267420708D55F
:1019D000DA0706D0236804221A62E26F42F002029C
:1019E000E26702070AD501F02002324306D02368DD
:1019F00008221A62E26F42F00802E267E26F002AF0
:101A000032D0800605D5880603D5216E09B120465F
:101A100088472168E06F8968490601D4000725D509
:101A2000204600F043FC20688168490619D581688A
:101A300021F040018160E06E98B11A490165E06EC5
:101A4000FEF7E4FE00280FD0E06E016D06E083068D
:101A500011D58B060FD5216E12E02046BDE8F0416E
:101A600008472046FFF78AFFBDE8F0812046FFF7D0
:101A700085FFE567F8E7030605D50B0603D5616E1C
:101A80000029EAD1F0E74006EED54806ECD5136808
:101A90002021204623F0400313606167656600F053
:101AA0006EF9E1E79922000810B5040002D0606FDA
:101AB00010B107E0012010BD002084F8700020461E
:101AC00000F026F8242060672068016821F00101F9
:101AD0000160204600F0FAFB0128ECD0606A10B1EA
:101AE000204600F057FB2068416821F49041416096
:101AF0002068816821F02A0181602068016841F036
:101B0000010101602046BDE8104000F0A7BB0000C5
:101B100070B586B0044614216846FEF7C1FB2A4A18
:101B200000202A4E02232568103A27490324B54293
:101B300021D10D6845F400250D60096801F40021EC
:101B40000591116841F00401116011680822CDE986
:101B5000020401F004010591A1021D48CDE9001322
:101B600069460492FEF776FE012202213420FEF738
:101B7000C5FF342024E0174EB54223D10D6845F44B
:101B800080250D60096801F480210591116841F0FC
:101B90000801116011680722CDE9020401F0080173
:101BA00005914FF440710C48CDE900136946049249
:101BB000FEF750FE022203212720FEF79FFF272079
:101BC000FEF78EFF06B070BD40380240004C00406A
:101BD0000008024000480040000C02402DE9F84F88
:101BE0000446806F9B4616460D4620286AD1EDB10B
:101BF000E6B194F87000012864D0012284F87020C6
:101C000022214FF00008C4F87C80A167FEF714FF82
:101C10008246A068A4F858604FF48053A4F85A6034
:101C2000FF21984208D122691AB118E00120BDE8CD
:101C3000F88F40F2FF1112E04FF07F0268B1B0F16F
:101C4000805F0FD0A4F85C809842B4F85C7001D13A
:101C5000206970B12E4600250CE0266936B9A4F83B
:101C60005C10F1E7216909B13F21F8E7A4F85C2095
:101C7000EAE7002607F0FF09B4F85A00E0B10022B5
:101C8000534620212046CDF800B000F049FC08B1B1
:101C90000320CCE72068406A56B100EA090006F844
:101CA000010B00BFB4F85A00401EA4F85A00E3E745
:101CB000384025F8020BF5E72021A167002084F8C1
:101CC0007080B4E70220B2E72DE9F8430446406F84
:101CD0001F4616460D4620284FD1CDB1C6B194F807
:101CE0007000012849D0012284F8702021214FF092
:101CF0000008C4F87C806167FEF79EFE8146A068FC
:101D0000A4F85060A4F85260B0F5805F03D004E0FE
:101D10000120BDE8F883206910B12E46002510E0AF
:101D200000260EE08021204600F0FAFBB8B9C6B1CB
:101D300016F8010B21688862B4F85200401EA4F81E
:101D40005200B4F852004B464FF0000200970028B2
:101D5000E8D14FF04001204600F0E2FB38B103200B
:101D6000D7E735F8020B2168C0F30800E3E720212C
:101D70006167002084F87080CBE70220C9E77047D4
:101D8000FEE700007FB515480024012512490094A4
:101D90002A0401940294039480E81600856104618A
:101DA0000F4980F82040C0E90A14C561C46080F87A
:101DB00030404461FEF7C6FC08B1FEF76FFB0A2015
:101DC0006946CDE9000505480294FEF769FB002845
:101DD00001D0FEF763FB7FBD00200140180000200A
:101DE0000100000F30B587B014216846FEF758FA9D
:101DF0001648016841F004010160016801F0040126
:101E00000591016841F002010160016801F00201E1
:101E10000591016841F008010160006844F2810405
:101E20000B4D002200F00800214605902846FEF7E1
:101E3000FDFD002100940120CDE901012846039118
:101E40006946FEF707FD07B030BD0000303802409C
:101E50000004024010B588B0184800241649D72263
:101E600040F2E7330094019402940394049405949F
:101E7000069480E81600C0E9033444618461FFF7EA
:101E80000FFC08B1FEF70AFB4FF4805000900B489E
:101E90006946FFF73FFC08B1FEF700FB074804A9BD
:101EA000049405940694FFF7CBFB002801D0FEF7BD
:101EB000F5FA08B010BD00000000014060000020ED
:101EC0000D48002110B50B4C0C224FF41653046042
:101ED000C0E90131C160C0E904128161C1610162E0
:101EE0004162FFF7E1FD002803D0BDE81040FEF796
:101EF000D5BA10BD004C0040A00000200D480021C4
:101F000010B50B4C0C224FF4E1330460C0E90131F1
:101F1000C160C0E904128161C16101624162FFF7E1
:101F2000C3FD002803D0BDE81040FEF7B7BA10BDCE
:101F30000048004020010020FEE7704770477047CE
:101F4000FEF780BD30B5B7B0342124A8FEF7A8F95C
:101F5000142131A8FEF7A4F990216846FEF7A0F9F4
:101F60001E48016841F080510160006800F0805017
:101F700036901B48016841F440410160006800252B
:101F80000DF1B00C022424940822D823CDE92A456F
:101F900000F44040369010218CE81C0001202F9462
:101FA000CDE9270124A8FFF797F9FEF7D9FDE20252
:101FB0004FF4A0510F20CDE9341231AA072182E855
:101FC000310031A8FFF7A0F84FF440701495139535
:101FD00000906846FEF7FAFD37B030BD4038024049
:101FE00000700040104A30B51048146800210F4BB3
:101FF00044F470041460083305680D4A0D4C45F034
:102000000105056019600368051D1340074A036058
:102010000C322C600568E305034C25F4802505602F
:10202000803C1160236030BD88ED00E00038024044
:10203000FFFFF6FE10300024044810B5FFF7D9FB6F
:1020400003480168491C016010BD000060000020C9
:1020500004000020F0B5274B4FF0804E264D02685B
:102060009842264E264F274C09D0704507D0A842EB
:1020700005D0B04203D0B84201D0A04205D1D1F87A
:1020800004C022F070024CEA020298421BD0704554
:1020900019D0A84217D0B04215D0B84213D0A042F0
:1020A00011D0194DA8420ED0184DA8420BD0184D92
:1020B000A84208D0174DA84205D0174DA84202D01B
:1020C000164DA84203D1CD6822F440722A434D69CF
:1020D00022F080022A43026098428A68C2620A683B
:1020E000826201D0A04201D10969016301214161ED
:1020F000F0BD000000000140000400400008004066
:10210000000C004000040140004001400044014038
:102110000048014000180040001C00400020004022
:1021200042EA032283680A4323F47F410A43826020
:102130007047826822F070020A4342F00701816012
:10214000704710B5036A046A23F00A0324F00104FF
:10215000046284690B4324F0F00141EA02118161B9
:10216000036210BD10B5036A23F010030362836994
:10217000046A23F4704324F0A00443EA023282612B
:1021800044EA0111016210BD0148FFF7F9BB0000EC
:10219000A000002090F82410C90706D00168836AC7
:1021A0004A6822F400321A434A6090F824108907E2
:1021B00006D50168C36A4A6822F480321A434A602D
:1021C00090F82410490706D50168036B4A6822F489
:1021D00080221A434A6090F82410090706D5016846
:1021E000436B4A6822F400421A434A6090F8241074
:1021F000C90606D50168836B8A6822F480521A43A7
:102200008A6090F82410890606D50168C36B8A6835
:1022100022F400521A438A6090F82410490611D51E
:102220000168036C4A6822F480121A434A60016C08
:10223000B1F5801F06D10168436C4A6822F4C002E0
:102240001A434A6090F82410090606D50168826C8A
:10225000486820F4002010434860704738B50025D6
:102260000446C567FEF7E8FB0346206800680007E0
:102270000BD56FF07E400090002220464FF40011F5
:1022800000F04EF908B1032038BD2020606784F8C3
:102290007050A067002038BD10B5806B0021A0F8F9
:1022A0005A10A0F85210FFF769FB10BD10B5016875
:1022B000202200230C6824F490740C6001688C6860
:1022C00024F001048C608267036610BD2DE9F041A3
:1022D00004468068DFF818C2864F2368D4E90452A8
:1022E000E16928431E6800250A438349104306EA32
:1022F0000C0606431E604FF400422068E6684368FF
:1023000023F44053334343602368A669206AD3F81B
:1023100008C030432CF4306606439E602068B84203
:102320000AD1086810F0030052D001287BD002289F
:102330007AD003286ED186E0704B98420AD10868A3
:1023400010F00C0079D004287BD0082877D00C2816
:1023500060D178E06A4B98420AD1086810F03000EA
:102360006BD010286DD0202869D0302852D16AE077
:10237000644B98420AD1086810F0C0005DD0402834
:102380005FD080285BD0C02844D15CE05E4B98428F
:102390000DD1086810F440704FD0B0F5807F50D058
:1023A000B0F5007F4BD0B0F5407F33D14BE0574BB9
:1023B00098420FD1086810F4406009D0B0F5806FE2
:1023C0003FD0B0F5006F3AD0B0F5406F22D13AE07F
:1023D000012120E04E4B98420DD1086810F4405086
:1023E0002BD0B0F5805F2CD0B0F5005F27D0B0F5D2
:1023F000405F0FD127E0474B98420BD1086810F49B
:1024000040401AD0B0F5804F1BD0904217D0B0F5A5
:10241000404F18D01021E0694FF6EF76904238D146
:1024200009295DD202E00CE009E006E0DFE801F0F6
:102430000D1027582A5858582D000021EBE702218B
:10244000E9E70421E7E70821E5E7FEF7F3FE01E00D
:10245000FEF700FF0146D4F80400490001EB5001EB
:10246000B1FBF0F080B2A0F11001B14238D84FF6C4
:10247000F0732168C0F342021840104324E026495B
:102480006068EBE7FEF7F6FEE4E760684FF4803142
:10249000E4E7092924D2DFE801F0050819231C2309
:1024A00023231F00FEF7C6FE01E0FEF7D3FE014620
:1024B000D4F8040001EB5001B1FBF0F080B2A0F1C0
:1024C0001001B1420CD82168C8600AE01349606865
:1024D000F0E7FEF7CFFEEAE7606802EB5001EBE7BA
:1024E00001250020206660662846BDE8F0810000D6
:1024F000F369FFEF001001409038024000440040B3
:1025000000480040004C00400050004000140140D2
:1025100000780040007C00400048E8010024F400FE
:102520002DE9F041984617460E460446069D08E000
:10253000681C06D0FEF780FAA0EB0800A8420BD872
:1025400055B12068C06936EA000017D00020B842B3
:10255000EED00020BDE8F0812168202000220B6829
:1025600023F4D0730B6021688B6823F001038B6028
:102570006067A067032084F87020EBE70120E6E79E
:102580000148FFF7FDB9000020010020FEE7000030
:102590000FB4084B10B504A902AA039800F02CF858
:1025A000044602A9002000F003F9204610BC5DF8A3
:1025B00014FB0000B1270008090700284FEA116149
:1025C00004DB00F1E02080F80014704700F00F00F9
:1025D00000F1E02080F8141D704702E008C8121FC7
:1025E00008C1002AFAD170477047002001E001C1FC
:1025F000121F002AFBD170472DE9FF4F8BB09A467E
:102600000F460546002606E025280BD052460D99B8
:1026100090476D1C761C28780028F5D10FB0304605
:10262000BDE8F08F0024A0460122604900E0044389
:1026300015F8013F203B02FA03F00842F7D1287851
:102640002E2817D115F8010F44F004042A280ED0C3
:102650006FF02F022878A0F1300109290AD808EB81
:10266000880102EB410100EB01086D1CF2E757F80D
:10267000048B6D1C287869283ED006DC0028CDD05C
:1026800063280BD0642804D136E0732810D0752855
:102690004BD052460D999047761C85E017F8040BF5
:1026A0008DF8000000208DF80100E946012003E0CC
:1026B00057F8049B4FF0FF3061074FF0000401D43E
:1026C0000AE0641C44450DDA8442FADB19F8041070
:1026D0000029F6D106E0641C8442FCDB19F80410E2
:1026E0000029F8D1264404E019F8010B52460D994F
:1026F0009047641EF8D257E001CF4FF00A0B002834
:1027000002DA40422D2102E0210504D52B218DF86B
:102710002410012103E0E10705D02021F7E70DF1A6
:10272000200908910CE00021F9E701CF4FF00A0BD6
:10273000F9E75946FDF7C6FD01F1300209F8012D10
:102740000028F6D1ADEB090000F1200B600701D4A1
:102750004FF00108D84502DDA8EB0B0000E0002097
:102760008046002406E009A85246005D0D99904776
:10277000641C761C08988442F5DB04E03020524645
:102780000D999047761CB8F10001A8F10108F5DC1D
:1027900005E019F8010B52460D999047761CBBF1E4
:1027A0000001ABF1010BF4DC6D1C34E709280100DA
:1027B0000A68531C0B6010707047000000B599B098
:1027C0000B4609A102466846FFF7E2FE684600F0A4
:1027D000DFF8062141F288320BA000F0E9F800286A
:1027E00000D0012019B000BD41542B43495053542F
:1027F0004152543D2254435022222573222C22253B
:1028000073222F722F6E00004C696E6B656400009E
:102810000D4910B508600DA000F0BAF84FF47A74B5
:10282000022122460BA000F0C3F800280AD00AA01B
:1028300000F0AEF80221224606A000F0B9F8002808
:1028400000D0012010BD00000000002041540D0AFE
:10285000000000004F4B0000415445300A0D0000BD
:10286000FEF7F8F8FFF76EFBFFF7BCFAFFF78AFAFE
:10287000FFF7F0FAFFF724FBFFF740FB2448FFF7D0
:10288000C7FF244D20B1002228460121FEF7CEF8D3
:10289000002228468021FEF7C9F80122284680211F
:1028A000FEF7C4F800241CA11EA0FFF787FF78B133
:1028B000002228460121FEF7B9F80122284680218E
:1028C000FEF7B4F8002228468021FEF7AFF803E0B7
:1028D000641CE4B2032CE6D314A043F6DB7100F0D1
:1028E00031F870B1002228460121FEF79FF801223D
:1028F00028468021FEF79AF8012228468021FEF71B
:1029000095F84FF4FA642046FDF792FFFBE70000CC
:10291000A0000020000402403838383838383838F1
:10292000380000004E384E4E590000007461696C4A
:102930006F722E636C6F75646D7174742E636F6D3E
:102940000000000000B58DB00B4609A102466846A4
:10295000FFF71EFE684600F01BF8062141F28832A0
:1029600009A000F025F8002800D001200DB000BD1E
:1029700041542B43495053544152543D2225732214
:102980002C25642F722F6E004C696E6B65640000FD
:1029900010B50446FDF78FFC2146BDE8104082B219
:1029A00002484FF41673FFF78FB90000A000002013
:1029B0002DE9FF4100240E460F2280460F484FF4B8
:1029C00016736946FFF70AF900256F460EE000BF4F
:1029D00018F80400795D814201D1641CE4B2B4426C
:1029E00003D1012004B0BDE8F0816D1C6846FDF7FD
:1029F00062FCA842ECD80020F4E70000A000002010
:102A0000000000000000000001020304060708099E
:102A10000000000001020304382A00080000002022
:102A200018000000DA250008502A000818000020CD
:102A300088050000EA2500080000000000000000F2
:102A40000100000010000000000000000024F4005D
:04000005080001F9F5
:00000001FF
